{
  "_format": "hh-sol-artifact-1",
  "contractName": "RealEstateNFT",
  "sourceName": "contracts/Nft.sol",
  "abi": [
    {
      "inputs": [],
      "stateMutability": "nonpayable",
      "type": "constructor"
    },
    {
      "anonymous": false,
      "inputs": [
        {
          "indexed": true,
          "internalType": "address",
          "name": "owner",
          "type": "address"
        },
        {
          "indexed": true,
          "internalType": "address",
          "name": "approved",
          "type": "address"
        },
        {
          "indexed": true,
          "internalType": "uint256",
          "name": "tokenId",
          "type": "uint256"
        }
      ],
      "name": "Approval",
      "type": "event"
    },
    {
      "anonymous": false,
      "inputs": [
        {
          "indexed": true,
          "internalType": "address",
          "name": "owner",
          "type": "address"
        },
        {
          "indexed": true,
          "internalType": "address",
          "name": "operator",
          "type": "address"
        },
        {
          "indexed": false,
          "internalType": "bool",
          "name": "approved",
          "type": "bool"
        }
      ],
      "name": "ApprovalForAll",
      "type": "event"
    },
    {
      "anonymous": false,
      "inputs": [
        {
          "indexed": false,
          "internalType": "uint256",
          "name": "_fromTokenId",
          "type": "uint256"
        },
        {
          "indexed": false,
          "internalType": "uint256",
          "name": "_toTokenId",
          "type": "uint256"
        }
      ],
      "name": "BatchMetadataUpdate",
      "type": "event"
    },
    {
      "anonymous": false,
      "inputs": [
        {
          "indexed": false,
          "internalType": "uint256",
          "name": "_tokenId",
          "type": "uint256"
        }
      ],
      "name": "MetadataUpdate",
      "type": "event"
    },
    {
      "anonymous": false,
      "inputs": [
        {
          "indexed": true,
          "internalType": "address",
          "name": "previousOwner",
          "type": "address"
        },
        {
          "indexed": true,
          "internalType": "address",
          "name": "newOwner",
          "type": "address"
        }
      ],
      "name": "OwnershipTransferred",
      "type": "event"
    },
    {
      "anonymous": false,
      "inputs": [
        {
          "indexed": true,
          "internalType": "address",
          "name": "from",
          "type": "address"
        },
        {
          "indexed": true,
          "internalType": "address",
          "name": "to",
          "type": "address"
        },
        {
          "indexed": true,
          "internalType": "uint256",
          "name": "tokenId",
          "type": "uint256"
        }
      ],
      "name": "Transfer",
      "type": "event"
    },
    {
      "inputs": [
        {
          "internalType": "address",
          "name": "to",
          "type": "address"
        },
        {
          "internalType": "uint256",
          "name": "tokenId",
          "type": "uint256"
        }
      ],
      "name": "approve",
      "outputs": [],
      "stateMutability": "nonpayable",
      "type": "function"
    },
    {
      "inputs": [
        {
          "internalType": "address",
          "name": "owner",
          "type": "address"
        }
      ],
      "name": "balanceOf",
      "outputs": [
        {
          "internalType": "uint256",
          "name": "",
          "type": "uint256"
        }
      ],
      "stateMutability": "view",
      "type": "function"
    },
    {
      "inputs": [
        {
          "internalType": "uint256",
          "name": "tokenId",
          "type": "uint256"
        }
      ],
      "name": "getApproved",
      "outputs": [
        {
          "internalType": "address",
          "name": "",
          "type": "address"
        }
      ],
      "stateMutability": "view",
      "type": "function"
    },
    {
      "inputs": [
        {
          "internalType": "address",
          "name": "owner",
          "type": "address"
        },
        {
          "internalType": "address",
          "name": "operator",
          "type": "address"
        }
      ],
      "name": "isApprovedForAll",
      "outputs": [
        {
          "internalType": "bool",
          "name": "",
          "type": "bool"
        }
      ],
      "stateMutability": "view",
      "type": "function"
    },
    {
      "inputs": [
        {
          "internalType": "string",
          "name": "tokenURI",
          "type": "string"
        }
      ],
      "name": "mint",
      "outputs": [
        {
          "internalType": "uint256",
          "name": "",
          "type": "uint256"
        }
      ],
      "stateMutability": "nonpayable",
      "type": "function"
    },
    {
      "inputs": [],
      "name": "name",
      "outputs": [
        {
          "internalType": "string",
          "name": "",
          "type": "string"
        }
      ],
      "stateMutability": "view",
      "type": "function"
    },
    {
      "inputs": [],
      "name": "owner",
      "outputs": [
        {
          "internalType": "address",
          "name": "",
          "type": "address"
        }
      ],
      "stateMutability": "view",
      "type": "function"
    },
    {
      "inputs": [
        {
          "internalType": "uint256",
          "name": "tokenId",
          "type": "uint256"
        }
      ],
      "name": "ownerOf",
      "outputs": [
        {
          "internalType": "address",
          "name": "",
          "type": "address"
        }
      ],
      "stateMutability": "view",
      "type": "function"
    },
    {
      "inputs": [],
      "name": "renounceOwnership",
      "outputs": [],
      "stateMutability": "nonpayable",
      "type": "function"
    },
    {
      "inputs": [
        {
          "internalType": "address",
          "name": "from",
          "type": "address"
        },
        {
          "internalType": "address",
          "name": "to",
          "type": "address"
        },
        {
          "internalType": "uint256",
          "name": "tokenId",
          "type": "uint256"
        }
      ],
      "name": "safeTransferFrom",
      "outputs": [],
      "stateMutability": "nonpayable",
      "type": "function"
    },
    {
      "inputs": [
        {
          "internalType": "address",
          "name": "from",
          "type": "address"
        },
        {
          "internalType": "address",
          "name": "to",
          "type": "address"
        },
        {
          "internalType": "uint256",
          "name": "tokenId",
          "type": "uint256"
        },
        {
          "internalType": "bytes",
          "name": "data",
          "type": "bytes"
        }
      ],
      "name": "safeTransferFrom",
      "outputs": [],
      "stateMutability": "nonpayable",
      "type": "function"
    },
    {
      "inputs": [
        {
          "internalType": "address",
          "name": "operator",
          "type": "address"
        },
        {
          "internalType": "bool",
          "name": "approved",
          "type": "bool"
        }
      ],
      "name": "setApprovalForAll",
      "outputs": [],
      "stateMutability": "nonpayable",
      "type": "function"
    },
    {
      "inputs": [
        {
          "internalType": "bytes4",
          "name": "interfaceId",
          "type": "bytes4"
        }
      ],
      "name": "supportsInterface",
      "outputs": [
        {
          "internalType": "bool",
          "name": "",
          "type": "bool"
        }
      ],
      "stateMutability": "view",
      "type": "function"
    },
    {
      "inputs": [],
      "name": "symbol",
      "outputs": [
        {
          "internalType": "string",
          "name": "",
          "type": "string"
        }
      ],
      "stateMutability": "view",
      "type": "function"
    },
    {
      "inputs": [],
      "name": "tokenCount",
      "outputs": [
        {
          "internalType": "uint256",
          "name": "",
          "type": "uint256"
        }
      ],
      "stateMutability": "view",
      "type": "function"
    },
    {
      "inputs": [
        {
          "internalType": "uint256",
          "name": "tokenId",
          "type": "uint256"
        }
      ],
      "name": "tokenURI",
      "outputs": [
        {
          "internalType": "string",
          "name": "",
          "type": "string"
        }
      ],
      "stateMutability": "view",
      "type": "function"
    },
    {
      "inputs": [
        {
          "internalType": "address",
          "name": "from",
          "type": "address"
        },
        {
          "internalType": "address",
          "name": "to",
          "type": "address"
        },
        {
          "internalType": "uint256",
          "name": "tokenId",
          "type": "uint256"
        }
      ],
      "name": "transferFrom",
      "outputs": [],
      "stateMutability": "nonpayable",
      "type": "function"
    },
    {
      "inputs": [
        {
          "internalType": "address",
          "name": "newOwner",
          "type": "address"
        }
      ],
      "name": "transferOwnership",
      "outputs": [],
      "stateMutability": "nonpayable",
      "type": "function"
    }
  ],
  "bytecode": "0x60806040523480156200001157600080fd5b506040518060400160405280600d81526020017f5265616c4573746174654e4654000000000000000000000000000000000000008152506040518060400160405280600581526020017f52454e465400000000000000000000000000000000000000000000000000000081525081600090816200008f919062000412565b508060019081620000a1919062000412565b505050620000c4620000b8620000ca60201b60201c565b620000d260201b60201c565b620004f9565b600033905090565b6000600760009054906101000a900473ffffffffffffffffffffffffffffffffffffffff16905081600760006101000a81548173ffffffffffffffffffffffffffffffffffffffff021916908373ffffffffffffffffffffffffffffffffffffffff1602179055508173ffffffffffffffffffffffffffffffffffffffff168173ffffffffffffffffffffffffffffffffffffffff167f8be0079c531659141344cd1fd0a4f28419497f9722a3daafe3b4186f6b6457e060405160405180910390a35050565b600081519050919050565b7f4e487b7100000000000000000000000000000000000000000000000000000000600052604160045260246000fd5b7f4e487b7100000000000000000000000000000000000000000000000000000000600052602260045260246000fd5b600060028204905060018216806200021a57607f821691505b60208210810362000230576200022f620001d2565b5b50919050565b60008190508160005260206000209050919050565b60006020601f8301049050919050565b600082821b905092915050565b6000600883026200029a7fffffffffffffffffffffffffffffffffffffffffffffffffffffffffffffffff826200025b565b620002a686836200025b565b95508019841693508086168417925050509392505050565b6000819050919050565b6000819050919050565b6000620002f3620002ed620002e784620002be565b620002c8565b620002be565b9050919050565b6000819050919050565b6200030f83620002d2565b620003276200031e82620002fa565b84845462000268565b825550505050565b600090565b6200033e6200032f565b6200034b81848462000304565b505050565b5b8181101562000373576200036760008262000334565b60018101905062000351565b5050565b601f821115620003c2576200038c8162000236565b62000397846200024b565b81016020851015620003a7578190505b620003bf620003b6856200024b565b83018262000350565b50505b505050565b600082821c905092915050565b6000620003e760001984600802620003c7565b1980831691505092915050565b6000620004028383620003d4565b9150826002028217905092915050565b6200041d8262000198565b67ffffffffffffffff811115620004395762000438620001a3565b5b62000445825462000201565b6200045282828562000377565b600060209050601f8311600181146200048a576000841562000475578287015190505b620004818582620003f4565b865550620004f1565b601f1984166200049a8662000236565b60005b82811015620004c4578489015182556001820191506020850194506020810190506200049d565b86831015620004e45784890151620004e0601f891682620003d4565b8355505b6001600288020188555050505b505050505050565b612e9280620005096000396000f3fe608060405234801561001057600080fd5b50600436106101165760003560e01c80638da5cb5b116100a2578063b88d4fde11610071578063b88d4fde146102cd578063c87b56dd146102e9578063d85d3d2714610319578063e985e9c514610349578063f2fde38b1461037957610116565b80638da5cb5b1461025757806395d89b41146102755780639f181b5e14610293578063a22cb465146102b157610116565b806323b872dd116100e957806323b872dd146101b557806342842e0e146101d15780636352211e146101ed57806370a082311461021d578063715018a61461024d57610116565b806301ffc9a71461011b57806306fdde031461014b578063081812fc14610169578063095ea7b314610199575b600080fd5b61013560048036038101906101309190611c96565b610395565b6040516101429190611cde565b60405180910390f35b6101536103a7565b6040516101609190611d89565b60405180910390f35b610183600480360381019061017e9190611de1565b610439565b6040516101909190611e4f565b60405180910390f35b6101b360048036038101906101ae9190611e96565b61047f565b005b6101cf60048036038101906101ca9190611ed6565b610596565b005b6101eb60048036038101906101e69190611ed6565b6105f6565b005b61020760048036038101906102029190611de1565b610616565b6040516102149190611e4f565b60405180910390f35b61023760048036038101906102329190611f29565b61069c565b6040516102449190611f65565b60405180910390f35b610255610753565b005b61025f610767565b60405161026c9190611e4f565b60405180910390f35b61027d610791565b60405161028a9190611d89565b60405180910390f35b61029b610823565b6040516102a89190611f65565b60405180910390f35b6102cb60048036038101906102c69190611fac565b610834565b005b6102e760048036038101906102e29190612121565b61084a565b005b61030360048036038101906102fe9190611de1565b6108ac565b6040516103109190611d89565b60405180910390f35b610333600480360381019061032e9190612245565b6108be565b6040516103409190611f65565b60405180910390f35b610363600480360381019061035e919061228e565b6108f5565b6040516103709190611cde565b60405180910390f35b610393600480360381019061038e9190611f29565b610989565b005b60006103a082610a0c565b9050919050565b6060600080546103b6906122fd565b80601f01602080910402602001604051908101604052809291908181526020018280546103e2906122fd565b801561042f5780601f106104045761010080835404028352916020019161042f565b820191906000526020600020905b81548152906001019060200180831161041257829003601f168201915b5050505050905090565b600061044482610a6d565b6004600083815260200190815260200160002060009054906101000a900473ffffffffffffffffffffffffffffffffffffffff169050919050565b600061048a82610616565b90508073ffffffffffffffffffffffffffffffffffffffff168373ffffffffffffffffffffffffffffffffffffffff16036104fa576040517f08c379a00000000000000000000000000000000000000000000000000000000081526004016104f1906123a0565b60405180910390fd5b8073ffffffffffffffffffffffffffffffffffffffff16610519610ab8565b73ffffffffffffffffffffffffffffffffffffffff161480610548575061054781610542610ab8565b6108f5565b5b610587576040517f08c379a000000000000000000000000000000000000000000000000000000000815260040161057e90612432565b60405180910390fd5b6105918383610ac0565b505050565b6105a76105a1610ab8565b82610b79565b6105e6576040517f08c379a00000000000000000000000000000000000000000000000000000000081526004016105dd906124c4565b60405180910390fd5b6105f1838383610c0e565b505050565b6106118383836040518060200160405280600081525061084a565b505050565b60008061062283610f07565b9050600073ffffffffffffffffffffffffffffffffffffffff168173ffffffffffffffffffffffffffffffffffffffff1603610693576040517f08c379a000000000000000000000000000000000000000000000000000000000815260040161068a90612530565b60405180910390fd5b80915050919050565b60008073ffffffffffffffffffffffffffffffffffffffff168273ffffffffffffffffffffffffffffffffffffffff160361070c576040517f08c379a0000000000000000000000000000000000000000000000000000000008152600401610703906125c2565b60405180910390fd5b600360008373ffffffffffffffffffffffffffffffffffffffff1673ffffffffffffffffffffffffffffffffffffffff168152602001908152602001600020549050919050565b61075b610f44565b6107656000610fc2565b565b6000600760009054906101000a900473ffffffffffffffffffffffffffffffffffffffff16905090565b6060600180546107a0906122fd565b80601f01602080910402602001604051908101604052809291908181526020018280546107cc906122fd565b80156108195780601f106107ee57610100808354040283529160200191610819565b820191906000526020600020905b8154815290600101906020018083116107fc57829003601f168201915b5050505050905090565b600061082f6008611088565b905090565b61084661083f610ab8565b8383611096565b5050565b61085b610855610ab8565b83610b79565b61089a576040517f08c379a0000000000000000000000000000000000000000000000000000000008152600401610891906124c4565b60405180910390fd5b6108a684848484611202565b50505050565b60606108b78261125e565b9050919050565b60006108ca6008611370565b60006108d66008611088565b90506108e23382611386565b6108ec81846115a3565b80915050919050565b6000600560008473ffffffffffffffffffffffffffffffffffffffff1673ffffffffffffffffffffffffffffffffffffffff16815260200190815260200160002060008373ffffffffffffffffffffffffffffffffffffffff1673ffffffffffffffffffffffffffffffffffffffff16815260200190815260200160002060009054906101000a900460ff16905092915050565b610991610f44565b600073ffffffffffffffffffffffffffffffffffffffff168173ffffffffffffffffffffffffffffffffffffffff1603610a00576040517f08c379a00000000000000000000000000000000000000000000000000000000081526004016109f790612654565b60405180910390fd5b610a0981610fc2565b50565b6000634906490660e01b7bffffffffffffffffffffffffffffffffffffffffffffffffffffffff1916827bffffffffffffffffffffffffffffffffffffffffffffffffffffffff19161480610a665750610a6582611647565b5b9050919050565b610a7681611729565b610ab5576040517f08c379a0000000000000000000000000000000000000000000000000000000008152600401610aac90612530565b60405180910390fd5b50565b600033905090565b816004600083815260200190815260200160002060006101000a81548173ffffffffffffffffffffffffffffffffffffffff021916908373ffffffffffffffffffffffffffffffffffffffff160217905550808273ffffffffffffffffffffffffffffffffffffffff16610b3383610616565b73ffffffffffffffffffffffffffffffffffffffff167f8c5be1e5ebec7d5bd14f71427d1e84f3dd0314c0f7b2291e5b200ac8c7c3b92560405160405180910390a45050565b600080610b8583610616565b90508073ffffffffffffffffffffffffffffffffffffffff168473ffffffffffffffffffffffffffffffffffffffff161480610bc75750610bc681856108f5565b5b80610c0557508373ffffffffffffffffffffffffffffffffffffffff16610bed84610439565b73ffffffffffffffffffffffffffffffffffffffff16145b91505092915050565b8273ffffffffffffffffffffffffffffffffffffffff16610c2e82610616565b73ffffffffffffffffffffffffffffffffffffffff1614610c84576040517f08c379a0000000000000000000000000000000000000000000000000000000008152600401610c7b906126e6565b60405180910390fd5b600073ffffffffffffffffffffffffffffffffffffffff168273ffffffffffffffffffffffffffffffffffffffff1603610cf3576040517f08c379a0000000000000000000000000000000000000000000000000000000008152600401610cea90612778565b60405180910390fd5b610d00838383600161176a565b8273ffffffffffffffffffffffffffffffffffffffff16610d2082610616565b73ffffffffffffffffffffffffffffffffffffffff1614610d76576040517f08c379a0000000000000000000000000000000000000000000000000000000008152600401610d6d906126e6565b60405180910390fd5b6004600082815260200190815260200160002060006101000a81549073ffffffffffffffffffffffffffffffffffffffff02191690556001600360008573ffffffffffffffffffffffffffffffffffffffff1673ffffffffffffffffffffffffffffffffffffffff168152602001908152602001600020600082825403925050819055506001600360008473ffffffffffffffffffffffffffffffffffffffff1673ffffffffffffffffffffffffffffffffffffffff16815260200190815260200160002060008282540192505081905550816002600083815260200190815260200160002060006101000a81548173ffffffffffffffffffffffffffffffffffffffff021916908373ffffffffffffffffffffffffffffffffffffffff160217905550808273ffffffffffffffffffffffffffffffffffffffff168473ffffffffffffffffffffffffffffffffffffffff167fddf252ad1be2c89b69c2b068fc378daa952ba7f163c4a11628f55a4df523b3ef60405160405180910390a4610f028383836001611770565b505050565b60006002600083815260200190815260200160002060009054906101000a900473ffffffffffffffffffffffffffffffffffffffff169050919050565b610f4c610ab8565b73ffffffffffffffffffffffffffffffffffffffff16610f6a610767565b73ffffffffffffffffffffffffffffffffffffffff1614610fc0576040517f08c379a0000000000000000000000000000000000000000000000000000000008152600401610fb7906127e4565b60405180910390fd5b565b6000600760009054906101000a900473ffffffffffffffffffffffffffffffffffffffff16905081600760006101000a81548173ffffffffffffffffffffffffffffffffffffffff021916908373ffffffffffffffffffffffffffffffffffffffff1602179055508173ffffffffffffffffffffffffffffffffffffffff168173ffffffffffffffffffffffffffffffffffffffff167f8be0079c531659141344cd1fd0a4f28419497f9722a3daafe3b4186f6b6457e060405160405180910390a35050565b600081600001549050919050565b8173ffffffffffffffffffffffffffffffffffffffff168373ffffffffffffffffffffffffffffffffffffffff1603611104576040517f08c379a00000000000000000000000000000000000000000000000000000000081526004016110fb90612850565b60405180910390fd5b80600560008573ffffffffffffffffffffffffffffffffffffffff1673ffffffffffffffffffffffffffffffffffffffff16815260200190815260200160002060008473ffffffffffffffffffffffffffffffffffffffff1673ffffffffffffffffffffffffffffffffffffffff16815260200190815260200160002060006101000a81548160ff0219169083151502179055508173ffffffffffffffffffffffffffffffffffffffff168373ffffffffffffffffffffffffffffffffffffffff167f17307eab39ab6107e8899845ad3d59bd9653f200f220920489ca2b5937696c31836040516111f59190611cde565b60405180910390a3505050565b61120d848484610c0e565b61121984848484611776565b611258576040517f08c379a000000000000000000000000000000000000000000000000000000000815260040161124f906128e2565b60405180910390fd5b50505050565b606061126982610a6d565b6000600660008481526020019081526020016000208054611289906122fd565b80601f01602080910402602001604051908101604052809291908181526020018280546112b5906122fd565b80156113025780601f106112d757610100808354040283529160200191611302565b820191906000526020600020905b8154815290600101906020018083116112e557829003601f168201915b5050505050905060006113136118fd565b9050600081510361132857819250505061136b565b60008251111561135d57808260405160200161134592919061293e565b6040516020818303038152906040529250505061136b565b61136684611914565b925050505b919050565b6001816000016000828254019250508190555050565b600073ffffffffffffffffffffffffffffffffffffffff168273ffffffffffffffffffffffffffffffffffffffff16036113f5576040517f08c379a00000000000000000000000000000000000000000000000000000000081526004016113ec906129ae565b60405180910390fd5b6113fe81611729565b1561143e576040517f08c379a000000000000000000000000000000000000000000000000000000000815260040161143590612a1a565b60405180910390fd5b61144c60008383600161176a565b61145581611729565b15611495576040517f08c379a000000000000000000000000000000000000000000000000000000000815260040161148c90612a1a565b60405180910390fd5b6001600360008473ffffffffffffffffffffffffffffffffffffffff1673ffffffffffffffffffffffffffffffffffffffff16815260200190815260200160002060008282540192505081905550816002600083815260200190815260200160002060006101000a81548173ffffffffffffffffffffffffffffffffffffffff021916908373ffffffffffffffffffffffffffffffffffffffff160217905550808273ffffffffffffffffffffffffffffffffffffffff16600073ffffffffffffffffffffffffffffffffffffffff167fddf252ad1be2c89b69c2b068fc378daa952ba7f163c4a11628f55a4df523b3ef60405160405180910390a461159f600083836001611770565b5050565b6115ac82611729565b6115eb576040517f08c379a00000000000000000000000000000000000000000000000000000000081526004016115e290612aac565b60405180910390fd5b8060066000848152602001908152602001600020908161160b9190612c78565b507ff8e1a15aba9398e019f0b49df1a4fde98ee17ae345cb5f6b5e2c27f5033e8ce78260405161163b9190611f65565b60405180910390a15050565b60007f80ac58cd000000000000000000000000000000000000000000000000000000007bffffffffffffffffffffffffffffffffffffffffffffffffffffffff1916827bffffffffffffffffffffffffffffffffffffffffffffffffffffffff1916148061171257507f5b5e139f000000000000000000000000000000000000000000000000000000007bffffffffffffffffffffffffffffffffffffffffffffffffffffffff1916827bffffffffffffffffffffffffffffffffffffffffffffffffffffffff1916145b8061172257506117218261197c565b5b9050919050565b60008073ffffffffffffffffffffffffffffffffffffffff1661174b83610f07565b73ffffffffffffffffffffffffffffffffffffffff1614159050919050565b50505050565b50505050565b60006117978473ffffffffffffffffffffffffffffffffffffffff166119e6565b156118f0578373ffffffffffffffffffffffffffffffffffffffff1663150b7a026117c0610ab8565b8786866040518563ffffffff1660e01b81526004016117e29493929190612d9f565b6020604051808303816000875af192505050801561181e57506040513d601f19601f8201168201806040525081019061181b9190612e00565b60015b6118a0573d806000811461184e576040519150601f19603f3d011682016040523d82523d6000602084013e611853565b606091505b506000815103611898576040517f08c379a000000000000000000000000000000000000000000000000000000000815260040161188f906128e2565b60405180910390fd5b805181602001fd5b63150b7a0260e01b7bffffffffffffffffffffffffffffffffffffffffffffffffffffffff1916817bffffffffffffffffffffffffffffffffffffffffffffffffffffffff1916149150506118f5565b600190505b949350505050565b606060405180602001604052806000815250905090565b606061191f82610a6d565b60006119296118fd565b905060008151116119495760405180602001604052806000815250611974565b8061195384611a09565b60405160200161196492919061293e565b6040516020818303038152906040525b915050919050565b60007f01ffc9a7000000000000000000000000000000000000000000000000000000007bffffffffffffffffffffffffffffffffffffffffffffffffffffffff1916827bffffffffffffffffffffffffffffffffffffffffffffffffffffffff1916149050919050565b6000808273ffffffffffffffffffffffffffffffffffffffff163b119050919050565b606060006001611a1884611ad7565b01905060008167ffffffffffffffff811115611a3757611a36611ff6565b5b6040519080825280601f01601f191660200182016040528015611a695781602001600182028036833780820191505090505b509050600082602001820190505b600115611acc578080600190039150507f3031323334353637383961626364656600000000000000000000000000000000600a86061a8153600a8581611ac057611abf612e2d565b5b04945060008503611a77575b819350505050919050565b600080600090507a184f03e93ff9f4daa797ed6e38ed64bf6a1f0100000000000000008310611b35577a184f03e93ff9f4daa797ed6e38ed64bf6a1f0100000000000000008381611b2b57611b2a612e2d565b5b0492506040810190505b6d04ee2d6d415b85acef81000000008310611b72576d04ee2d6d415b85acef81000000008381611b6857611b67612e2d565b5b0492506020810190505b662386f26fc100008310611ba157662386f26fc100008381611b9757611b96612e2d565b5b0492506010810190505b6305f5e1008310611bca576305f5e1008381611bc057611bbf612e2d565b5b0492506008810190505b6127108310611bef576127108381611be557611be4612e2d565b5b0492506004810190505b60648310611c125760648381611c0857611c07612e2d565b5b0492506002810190505b600a8310611c21576001810190505b80915050919050565b6000604051905090565b600080fd5b600080fd5b60007fffffffff0000000000000000000000000000000000000000000000000000000082169050919050565b611c7381611c3e565b8114611c7e57600080fd5b50565b600081359050611c9081611c6a565b92915050565b600060208284031215611cac57611cab611c34565b5b6000611cba84828501611c81565b91505092915050565b60008115159050919050565b611cd881611cc3565b82525050565b6000602082019050611cf36000830184611ccf565b92915050565b600081519050919050565b600082825260208201905092915050565b60005b83811015611d33578082015181840152602081019050611d18565b60008484015250505050565b6000601f19601f8301169050919050565b6000611d5b82611cf9565b611d658185611d04565b9350611d75818560208601611d15565b611d7e81611d3f565b840191505092915050565b60006020820190508181036000830152611da38184611d50565b905092915050565b6000819050919050565b611dbe81611dab565b8114611dc957600080fd5b50565b600081359050611ddb81611db5565b92915050565b600060208284031215611df757611df6611c34565b5b6000611e0584828501611dcc565b91505092915050565b600073ffffffffffffffffffffffffffffffffffffffff82169050919050565b6000611e3982611e0e565b9050919050565b611e4981611e2e565b82525050565b6000602082019050611e646000830184611e40565b92915050565b611e7381611e2e565b8114611e7e57600080fd5b50565b600081359050611e9081611e6a565b92915050565b60008060408385031215611ead57611eac611c34565b5b6000611ebb85828601611e81565b9250506020611ecc85828601611dcc565b9150509250929050565b600080600060608486031215611eef57611eee611c34565b5b6000611efd86828701611e81565b9350506020611f0e86828701611e81565b9250506040611f1f86828701611dcc565b9150509250925092565b600060208284031215611f3f57611f3e611c34565b5b6000611f4d84828501611e81565b91505092915050565b611f5f81611dab565b82525050565b6000602082019050611f7a6000830184611f56565b92915050565b611f8981611cc3565b8114611f9457600080fd5b50565b600081359050611fa681611f80565b92915050565b60008060408385031215611fc357611fc2611c34565b5b6000611fd185828601611e81565b9250506020611fe285828601611f97565b9150509250929050565b600080fd5b600080fd5b7f4e487b7100000000000000000000000000000000000000000000000000000000600052604160045260246000fd5b61202e82611d3f565b810181811067ffffffffffffffff8211171561204d5761204c611ff6565b5b80604052505050565b6000612060611c2a565b905061206c8282612025565b919050565b600067ffffffffffffffff82111561208c5761208b611ff6565b5b61209582611d3f565b9050602081019050919050565b82818337600083830152505050565b60006120c46120bf84612071565b612056565b9050828152602081018484840111156120e0576120df611ff1565b5b6120eb8482856120a2565b509392505050565b600082601f83011261210857612107611fec565b5b81356121188482602086016120b1565b91505092915050565b6000806000806080858703121561213b5761213a611c34565b5b600061214987828801611e81565b945050602061215a87828801611e81565b935050604061216b87828801611dcc565b925050606085013567ffffffffffffffff81111561218c5761218b611c39565b5b612198878288016120f3565b91505092959194509250565b600067ffffffffffffffff8211156121bf576121be611ff6565b5b6121c882611d3f565b9050602081019050919050565b60006121e86121e3846121a4565b612056565b90508281526020810184848401111561220457612203611ff1565b5b61220f8482856120a2565b509392505050565b600082601f83011261222c5761222b611fec565b5b813561223c8482602086016121d5565b91505092915050565b60006020828403121561225b5761225a611c34565b5b600082013567ffffffffffffffff81111561227957612278611c39565b5b61228584828501612217565b91505092915050565b600080604083850312156122a5576122a4611c34565b5b60006122b385828601611e81565b92505060206122c485828601611e81565b9150509250929050565b7f4e487b7100000000000000000000000000000000000000000000000000000000600052602260045260246000fd5b6000600282049050600182168061231557607f821691505b602082108103612328576123276122ce565b5b50919050565b7f4552433732313a20617070726f76616c20746f2063757272656e74206f776e6560008201527f7200000000000000000000000000000000000000000000000000000000000000602082015250565b600061238a602183611d04565b91506123958261232e565b604082019050919050565b600060208201905081810360008301526123b98161237d565b9050919050565b7f4552433732313a20617070726f76652063616c6c6572206973206e6f7420746f60008201527f6b656e206f776e6572206f7220617070726f76656420666f7220616c6c000000602082015250565b600061241c603d83611d04565b9150612427826123c0565b604082019050919050565b6000602082019050818103600083015261244b8161240f565b9050919050565b7f4552433732313a2063616c6c6572206973206e6f7420746f6b656e206f776e6560008201527f72206f7220617070726f76656400000000000000000000000000000000000000602082015250565b60006124ae602d83611d04565b91506124b982612452565b604082019050919050565b600060208201905081810360008301526124dd816124a1565b9050919050565b7f4552433732313a20696e76616c696420746f6b656e2049440000000000000000600082015250565b600061251a601883611d04565b9150612525826124e4565b602082019050919050565b600060208201905081810360008301526125498161250d565b9050919050565b7f4552433732313a2061646472657373207a65726f206973206e6f74206120766160008201527f6c6964206f776e65720000000000000000000000000000000000000000000000602082015250565b60006125ac602983611d04565b91506125b782612550565b604082019050919050565b600060208201905081810360008301526125db8161259f565b9050919050565b7f4f776e61626c653a206e6577206f776e657220697320746865207a65726f206160008201527f6464726573730000000000000000000000000000000000000000000000000000602082015250565b600061263e602683611d04565b9150612649826125e2565b604082019050919050565b6000602082019050818103600083015261266d81612631565b9050919050565b7f4552433732313a207472616e736665722066726f6d20696e636f72726563742060008201527f6f776e6572000000000000000000000000000000000000000000000000000000602082015250565b60006126d0602583611d04565b91506126db82612674565b604082019050919050565b600060208201905081810360008301526126ff816126c3565b9050919050565b7f4552433732313a207472616e7366657220746f20746865207a65726f2061646460008201527f7265737300000000000000000000000000000000000000000000000000000000602082015250565b6000612762602483611d04565b915061276d82612706565b604082019050919050565b6000602082019050818103600083015261279181612755565b9050919050565b7f4f776e61626c653a2063616c6c6572206973206e6f7420746865206f776e6572600082015250565b60006127ce602083611d04565b91506127d982612798565b602082019050919050565b600060208201905081810360008301526127fd816127c1565b9050919050565b7f4552433732313a20617070726f766520746f2063616c6c657200000000000000600082015250565b600061283a601983611d04565b915061284582612804565b602082019050919050565b600060208201905081810360008301526128698161282d565b9050919050565b7f4552433732313a207472616e7366657220746f206e6f6e20455243373231526560008201527f63656976657220696d706c656d656e7465720000000000000000000000000000602082015250565b60006128cc603283611d04565b91506128d782612870565b604082019050919050565b600060208201905081810360008301526128fb816128bf565b9050919050565b600081905092915050565b600061291882611cf9565b6129228185612902565b9350612932818560208601611d15565b80840191505092915050565b600061294a828561290d565b9150612956828461290d565b91508190509392505050565b7f4552433732313a206d696e7420746f20746865207a65726f2061646472657373600082015250565b6000612998602083611d04565b91506129a382612962565b602082019050919050565b600060208201905081810360008301526129c78161298b565b9050919050565b7f4552433732313a20746f6b656e20616c7265616479206d696e74656400000000600082015250565b6000612a04601c83611d04565b9150612a0f826129ce565b602082019050919050565b60006020820190508181036000830152612a33816129f7565b9050919050565b7f45524337323155524953746f726167653a2055524920736574206f66206e6f6e60008201527f6578697374656e7420746f6b656e000000000000000000000000000000000000602082015250565b6000612a96602e83611d04565b9150612aa182612a3a565b604082019050919050565b60006020820190508181036000830152612ac581612a89565b9050919050565b60008190508160005260206000209050919050565b60006020601f8301049050919050565b600082821b905092915050565b600060088302612b2e7fffffffffffffffffffffffffffffffffffffffffffffffffffffffffffffffff82612af1565b612b388683612af1565b95508019841693508086168417925050509392505050565b6000819050919050565b6000612b75612b70612b6b84611dab565b612b50565b611dab565b9050919050565b6000819050919050565b612b8f83612b5a565b612ba3612b9b82612b7c565b848454612afe565b825550505050565b600090565b612bb8612bab565b612bc3818484612b86565b505050565b5b81811015612be757612bdc600082612bb0565b600181019050612bc9565b5050565b601f821115612c2c57612bfd81612acc565b612c0684612ae1565b81016020851015612c15578190505b612c29612c2185612ae1565b830182612bc8565b50505b505050565b600082821c905092915050565b6000612c4f60001984600802612c31565b1980831691505092915050565b6000612c688383612c3e565b9150826002028217905092915050565b612c8182611cf9565b67ffffffffffffffff811115612c9a57612c99611ff6565b5b612ca482546122fd565b612caf828285612beb565b600060209050601f831160018114612ce25760008415612cd0578287015190505b612cda8582612c5c565b865550612d42565b601f198416612cf086612acc565b60005b82811015612d1857848901518255600182019150602085019450602081019050612cf3565b86831015612d355784890151612d31601f891682612c3e565b8355505b6001600288020188555050505b505050505050565b600081519050919050565b600082825260208201905092915050565b6000612d7182612d4a565b612d7b8185612d55565b9350612d8b818560208601611d15565b612d9481611d3f565b840191505092915050565b6000608082019050612db46000830187611e40565b612dc16020830186611e40565b612dce6040830185611f56565b8181036060830152612de08184612d66565b905095945050505050565b600081519050612dfa81611c6a565b92915050565b600060208284031215612e1657612e15611c34565b5b6000612e2484828501612deb565b91505092915050565b7f4e487b7100000000000000000000000000000000000000000000000000000000600052601260045260246000fdfea2646970667358221220ad744e4ae9a9c573bfb04caf755e9bdfc9d20f30310f5372bb03700602b27eff64736f6c63430008130033",
  "linkReferences": {},
  "deployedLinkReferences": {}
}