{
  "_format": "hh-sol-artifact-1",
  "contractName": "Marketplace",
  "sourceName": "contracts/Marketplace.sol",
  "abi": [
    {
      "inputs": [
        {
          "internalType": "uint256",
          "name": "_feePercent",
          "type": "uint256"
        }
      ],
      "stateMutability": "nonpayable",
      "type": "constructor"
    },
    {
      "anonymous": false,
      "inputs": [
        {
          "indexed": false,
          "internalType": "uint256",
          "name": "itemId",
          "type": "uint256"
        },
        {
          "indexed": true,
          "internalType": "address",
          "name": "nft",
          "type": "address"
        },
        {
          "indexed": false,
          "internalType": "uint256",
          "name": "tokenId",
          "type": "uint256"
        },
        {
          "indexed": false,
          "internalType": "uint256",
          "name": "price",
          "type": "uint256"
        },
        {
          "indexed": true,
          "internalType": "address",
          "name": "seller",
          "type": "address"
        },
        {
          "indexed": true,
          "internalType": "address",
          "name": "buyer",
          "type": "address"
        }
      ],
      "name": "Bought",
      "type": "event"
    },
    {
      "anonymous": false,
      "inputs": [
        {
          "indexed": false,
          "internalType": "uint256",
          "name": "itemId",
          "type": "uint256"
        },
        {
          "indexed": true,
          "internalType": "address",
          "name": "nft",
          "type": "address"
        },
        {
          "indexed": false,
          "internalType": "uint256",
          "name": "tokenId",
          "type": "uint256"
        },
        {
          "indexed": false,
          "internalType": "uint256",
          "name": "price",
          "type": "uint256"
        },
        {
          "indexed": true,
          "internalType": "address",
          "name": "seller",
          "type": "address"
        }
      ],
      "name": "Offered",
      "type": "event"
    },
    {
      "inputs": [],
      "name": "feeAccount",
      "outputs": [
        {
          "internalType": "address payable",
          "name": "",
          "type": "address"
        }
      ],
      "stateMutability": "view",
      "type": "function"
    },
    {
      "inputs": [],
      "name": "feePercent",
      "outputs": [
        {
          "internalType": "uint256",
          "name": "",
          "type": "uint256"
        }
      ],
      "stateMutability": "view",
      "type": "function"
    },
    {
      "inputs": [],
      "name": "getString",
      "outputs": [
        {
          "internalType": "string",
          "name": "",
          "type": "string"
        }
      ],
      "stateMutability": "pure",
      "type": "function"
    },
    {
      "inputs": [
        {
          "internalType": "uint256",
          "name": "_itemId",
          "type": "uint256"
        }
      ],
      "name": "getTotalPrice",
      "outputs": [
        {
          "internalType": "uint256",
          "name": "",
          "type": "uint256"
        }
      ],
      "stateMutability": "view",
      "type": "function"
    },
    {
      "inputs": [],
      "name": "itemCount",
      "outputs": [
        {
          "internalType": "uint256",
          "name": "",
          "type": "uint256"
        }
      ],
      "stateMutability": "view",
      "type": "function"
    },
    {
      "inputs": [
        {
          "internalType": "uint256",
          "name": "",
          "type": "uint256"
        }
      ],
      "name": "items",
      "outputs": [
        {
          "internalType": "uint256",
          "name": "itemId",
          "type": "uint256"
        },
        {
          "internalType": "contract IERC721",
          "name": "nft",
          "type": "address"
        },
        {
          "internalType": "uint256",
          "name": "tokenId",
          "type": "uint256"
        },
        {
          "internalType": "uint256",
          "name": "price",
          "type": "uint256"
        },
        {
          "internalType": "address payable",
          "name": "seller",
          "type": "address"
        },
        {
          "internalType": "bool",
          "name": "sold",
          "type": "bool"
        }
      ],
      "stateMutability": "view",
      "type": "function"
    },
    {
      "inputs": [
        {
          "internalType": "address",
          "name": "_nft",
          "type": "address"
        },
        {
          "internalType": "uint256",
          "name": "_tokenId",
          "type": "uint256"
        },
        {
          "internalType": "uint256",
          "name": "_price",
          "type": "uint256"
        }
      ],
      "name": "makeItem",
      "outputs": [
        {
          "internalType": "uint256",
          "name": "",
          "type": "uint256"
        }
      ],
      "stateMutability": "nonpayable",
      "type": "function"
    },
    {
      "inputs": [
        {
          "internalType": "address",
          "name": "operator",
          "type": "address"
        },
        {
          "internalType": "address",
          "name": "from",
          "type": "address"
        },
        {
          "internalType": "uint256",
          "name": "tokenId",
          "type": "uint256"
        },
        {
          "internalType": "bytes",
          "name": "data",
          "type": "bytes"
        }
      ],
      "name": "onERC721Received",
      "outputs": [
        {
          "internalType": "bytes4",
          "name": "",
          "type": "bytes4"
        }
      ],
      "stateMutability": "nonpayable",
      "type": "function"
    },
    {
      "inputs": [
        {
          "internalType": "uint256",
          "name": "_itemId",
          "type": "uint256"
        }
      ],
      "name": "purchaseItem",
      "outputs": [],
      "stateMutability": "payable",
      "type": "function"
    }
  ],
  "bytecode": "0x60806040523480156200001157600080fd5b50604051620013f0380380620013f08339818101604052810190620000379190620000ce565b60016000819055508060038190555033600460006101000a81548173ffffffffffffffffffffffffffffffffffffffff021916908373ffffffffffffffffffffffffffffffffffffffff1602179055505062000100565b600080fd5b6000819050919050565b620000a88162000093565b8114620000b457600080fd5b50565b600081519050620000c8816200009d565b92915050565b600060208284031215620000e757620000e66200008e565b5b6000620000f784828501620000b7565b91505092915050565b6112e080620001106000396000f3fe6080604052600436106100865760003560e01c806389ea642f1161005957806389ea642f14610149578063bfb231d214610174578063ca7dd375146101b6578063d38ea5bf146101f3578063fa00afc71461020f57610086565b8063150b7a021461008b57806365e17c9d146100c85780636bfb0d01146100f35780637fd6f15c1461011e575b600080fd5b34801561009757600080fd5b506100b260048036038101906100ad9190610b19565b61024c565b6040516100bf9190610bdc565b60405180910390f35b3480156100d457600080fd5b506100dd610261565b6040516100ea9190610c18565b60405180910390f35b3480156100ff57600080fd5b50610108610287565b6040516101159190610c42565b60405180910390f35b34801561012a57600080fd5b5061013361028d565b6040516101409190610c42565b60405180910390f35b34801561015557600080fd5b5061015e610293565b60405161016b9190610ced565b60405180910390f35b34801561018057600080fd5b5061019b60048036038101906101969190610d0f565b6102d0565b6040516101ad96959493929190610db6565b60405180910390f35b3480156101c257600080fd5b506101dd60048036038101906101d89190610d0f565b610359565b6040516101ea9190610c42565b60405180910390f35b61020d60048036038101906102089190610d0f565b61039e565b005b34801561021b57600080fd5b5061023660048036038101906102319190610e17565b610728565b6040516102439190610c42565b60405180910390f35b600063150b7a0260e01b905095945050505050565b600460009054906101000a900473ffffffffffffffffffffffffffffffffffffffff1681565b60015481565b60035481565b60606040518060400160405280601781526020017f48656c6c6f2066726f6d204d61726b6574706c61636521000000000000000000815250905090565b60026020528060005260406000206000915090508060000154908060010160009054906101000a900473ffffffffffffffffffffffffffffffffffffffff16908060020154908060030154908060040160009054906101000a900473ffffffffffffffffffffffffffffffffffffffff16908060040160149054906101000a900460ff16905086565b60006064600354606461036c9190610e99565b600260008581526020019081526020016000206003015461038d9190610ecd565b6103979190610f3e565b9050919050565b6103a66109bd565b60006103b182610359565b905060006002600084815260200190815260200160002090506000831180156103dc57506001548311155b61041b576040517f08c379a000000000000000000000000000000000000000000000000000000000815260040161041290610fbb565b60405180910390fd5b8134101561045e576040517f08c379a00000000000000000000000000000000000000000000000000000000081526004016104559061104d565b60405180910390fd5b8060040160149054906101000a900460ff16156104b0576040517f08c379a00000000000000000000000000000000000000000000000000000000081526004016104a7906110b9565b60405180910390fd5b60018160040160146101000a81548160ff0219169083151502179055508060040160009054906101000a900473ffffffffffffffffffffffffffffffffffffffff1673ffffffffffffffffffffffffffffffffffffffff166108fc82600301549081150290604051600060405180830381858888f1935050505015801561053b573d6000803e3d6000fd5b50600460009054906101000a900473ffffffffffffffffffffffffffffffffffffffff1673ffffffffffffffffffffffffffffffffffffffff166108fc82600301548461058891906110d9565b9081150290604051600060405180830381858888f193505050501580156105b3573d6000803e3d6000fd5b508060010160009054906101000a900473ffffffffffffffffffffffffffffffffffffffff1673ffffffffffffffffffffffffffffffffffffffff166323b872dd303384600201546040518463ffffffff1660e01b81526004016106199392919061111c565b600060405180830381600087803b15801561063357600080fd5b505af1158015610647573d6000803e3d6000fd5b505050503373ffffffffffffffffffffffffffffffffffffffff168160040160009054906101000a900473ffffffffffffffffffffffffffffffffffffffff1673ffffffffffffffffffffffffffffffffffffffff168260010160009054906101000a900473ffffffffffffffffffffffffffffffffffffffff1673ffffffffffffffffffffffffffffffffffffffff167f8b4c9c8a607d67b321582dd8461041b1dc2ceeca70c8b7f37f8e02095cf2e76d868560020154866003015460405161071393929190611153565b60405180910390a45050610725610a0c565b50565b60006107326109bd565b60008211610775576040517f08c379a000000000000000000000000000000000000000000000000000000000815260040161076c906111d6565b60405180910390fd5b60016000815480929190610788906111f6565b91905055506040518060c0016040528060015481526020018573ffffffffffffffffffffffffffffffffffffffff1681526020018481526020018381526020013373ffffffffffffffffffffffffffffffffffffffff168152602001600015158152506002600060015481526020019081526020016000206000820151816000015560208201518160010160006101000a81548173ffffffffffffffffffffffffffffffffffffffff021916908373ffffffffffffffffffffffffffffffffffffffff160217905550604082015181600201556060820151816003015560808201518160040160006101000a81548173ffffffffffffffffffffffffffffffffffffffff021916908373ffffffffffffffffffffffffffffffffffffffff16021790555060a08201518160040160146101000a81548160ff0219169083151502179055509050508373ffffffffffffffffffffffffffffffffffffffff166323b872dd3330866040518463ffffffff1660e01b815260040161090c9392919061111c565b600060405180830381600087803b15801561092657600080fd5b505af115801561093a573d6000803e3d6000fd5b505050503373ffffffffffffffffffffffffffffffffffffffff168473ffffffffffffffffffffffffffffffffffffffff167f655a0cf9c8db81512be9a76dc1c5ae5380b8816ce6ad659cd61b715e2999d59a60015486866040516109a193929190611153565b60405180910390a360015490506109b6610a0c565b9392505050565b600260005403610a02576040517f08c379a00000000000000000000000000000000000000000000000000000000081526004016109f99061128a565b60405180910390fd5b6002600081905550565b6001600081905550565b600080fd5b600080fd5b600073ffffffffffffffffffffffffffffffffffffffff82169050919050565b6000610a4b82610a20565b9050919050565b610a5b81610a40565b8114610a6657600080fd5b50565b600081359050610a7881610a52565b92915050565b6000819050919050565b610a9181610a7e565b8114610a9c57600080fd5b50565b600081359050610aae81610a88565b92915050565b600080fd5b600080fd5b600080fd5b60008083601f840112610ad957610ad8610ab4565b5b8235905067ffffffffffffffff811115610af657610af5610ab9565b5b602083019150836001820283011115610b1257610b11610abe565b5b9250929050565b600080600080600060808688031215610b3557610b34610a16565b5b6000610b4388828901610a69565b9550506020610b5488828901610a69565b9450506040610b6588828901610a9f565b935050606086013567ffffffffffffffff811115610b8657610b85610a1b565b5b610b9288828901610ac3565b92509250509295509295909350565b60007fffffffff0000000000000000000000000000000000000000000000000000000082169050919050565b610bd681610ba1565b82525050565b6000602082019050610bf16000830184610bcd565b92915050565b6000610c0282610a20565b9050919050565b610c1281610bf7565b82525050565b6000602082019050610c2d6000830184610c09565b92915050565b610c3c81610a7e565b82525050565b6000602082019050610c576000830184610c33565b92915050565b600081519050919050565b600082825260208201905092915050565b60005b83811015610c97578082015181840152602081019050610c7c565b60008484015250505050565b6000601f19601f8301169050919050565b6000610cbf82610c5d565b610cc98185610c68565b9350610cd9818560208601610c79565b610ce281610ca3565b840191505092915050565b60006020820190508181036000830152610d078184610cb4565b905092915050565b600060208284031215610d2557610d24610a16565b5b6000610d3384828501610a9f565b91505092915050565b6000819050919050565b6000610d61610d5c610d5784610a20565b610d3c565b610a20565b9050919050565b6000610d7382610d46565b9050919050565b6000610d8582610d68565b9050919050565b610d9581610d7a565b82525050565b60008115159050919050565b610db081610d9b565b82525050565b600060c082019050610dcb6000830189610c33565b610dd86020830188610d8c565b610de56040830187610c33565b610df26060830186610c33565b610dff6080830185610c09565b610e0c60a0830184610da7565b979650505050505050565b600080600060608486031215610e3057610e2f610a16565b5b6000610e3e86828701610a69565b9350506020610e4f86828701610a9f565b9250506040610e6086828701610a9f565b9150509250925092565b7f4e487b7100000000000000000000000000000000000000000000000000000000600052601160045260246000fd5b6000610ea482610a7e565b9150610eaf83610a7e565b9250828201905080821115610ec757610ec6610e6a565b5b92915050565b6000610ed882610a7e565b9150610ee383610a7e565b9250828202610ef181610a7e565b91508282048414831517610f0857610f07610e6a565b5b5092915050565b7f4e487b7100000000000000000000000000000000000000000000000000000000600052601260045260246000fd5b6000610f4982610a7e565b9150610f5483610a7e565b925082610f6457610f63610f0f565b5b828204905092915050565b7f4974656d20646f65736e27742065786973740000000000000000000000000000600082015250565b6000610fa5601283610c68565b9150610fb082610f6f565b602082019050919050565b60006020820190508181036000830152610fd481610f98565b9050919050565b7f4e6f7420656e6f75676820657468657220746f20636f766572206974656d207060008201527f7269636520616e64206d61726b65742066656500000000000000000000000000602082015250565b6000611037603383610c68565b915061104282610fdb565b604082019050919050565b600060208201905081810360008301526110668161102a565b9050919050565b7f4974656d20616c726561647920736f6c64000000000000000000000000000000600082015250565b60006110a3601183610c68565b91506110ae8261106d565b602082019050919050565b600060208201905081810360008301526110d281611096565b9050919050565b60006110e482610a7e565b91506110ef83610a7e565b925082820390508181111561110757611106610e6a565b5b92915050565b61111681610a40565b82525050565b6000606082019050611131600083018661110d565b61113e602083018561110d565b61114b6040830184610c33565b949350505050565b60006060820190506111686000830186610c33565b6111756020830185610c33565b6111826040830184610c33565b949350505050565b7f5072696365206d7573742062652067726561746572207468616e207a65726f00600082015250565b60006111c0601f83610c68565b91506111cb8261118a565b602082019050919050565b600060208201905081810360008301526111ef816111b3565b9050919050565b600061120182610a7e565b91507fffffffffffffffffffffffffffffffffffffffffffffffffffffffffffffffff820361123357611232610e6a565b5b600182019050919050565b7f5265656e7472616e637947756172643a207265656e7472616e742063616c6c00600082015250565b6000611274601f83610c68565b915061127f8261123e565b602082019050919050565b600060208201905081810360008301526112a381611267565b905091905056fea26469706673582212209f8cc3639f8ba58936d084900812de1c5330e2e06cb9519de6e8b023d79775f064736f6c63430008130033",
  "linkReferences": {},
  "deployedLinkReferences": {}
}